:0400000010EF06F007
:100800000001000A006400E803102754656D70655C
:100810007261747572653A002564274320000000F8
:10082000000E1E6E190E1D6E9CD02650250AD8B4DF
:1008300009D015C0D9FF16C0DAFF26C0DFFF154A60
:10084000162A8FD01B6E000E1F6E1B5017C0F6FFAE
:1008500018C0F7FF174A182A0800F5CF26F02650CF
:10086000000AD8B489D0640AD8B403D00D0AD8A439
:1008700078D01DC0D9FF1EC0DAFFDECF21F0DDCF5A
:1008800022F0020E1D26000E1E222250800AF36E58
:10089000800EF35C000ED8B4215CD8B006D0030EF5
:1008A0001F12216C221ED8B0222A1B6E010E266E4A
:1008B0001B502650050AD8B416D02650020D010E42
:1008C000F324F66E080EF420F76E0900F5CF1BF046
:1008D0000900F5CF1CF01B50215C1C502258D8A0F9
:1008E00002D0262AE6D71FC01BF0030E1B16D8B471
:1008F00008D015C0D9FF16C0DAFF2D0EDF6E154ADD
:10090000162A26C020F029D02050020D010EF32413
:10091000F66E080EF420F76E0900F5CF09F00A0014
:10092000F5CF0AF021C007F022C008F04CEC05F02A
:1009300007C00FF008C010F0000E126E0A0E116E04
:1009400077EC05F00F50300F266E15C0D9FF16C09A
:10095000DAFF26C0DFFF154A162A20062028D8A471
:10096000D3D717C0F6FF18C0F7FF174A182A080098
:10097000F5CF26F0266659D715C0D9FF16C0DAFF85
:10098000000EDF6E1200D2EC05F025EC06F0000E32
:10099000096E010E086E000E0B6E010E0A6E080E37
:1009A0000D6E0B0E0C6E16EC05F01BEC06F001C084
:1009B00027F002C028F0010E046EF40E036E27C06B
:1009C00001F028C002F09AEC05F001C007F002C067
:1009D00008F0030E0A6EFF0E096E4CEC05F007C01E
:1009E00027F008C028F0000E166E290E156E080EAE
:1009F000186E180E176E27C019F028C01AF010ECE8
:100A000004F0000E096E020E086E000E0B6E010E51
:100A10000A6E000E0D6E290E0C6E16EC05F0230EFC
:100A2000026E280E016EB7EC05F0BFD7080409105E
:100A3000D8A405D00A048009FCEC05F019D00A04FA
:100A4000C009FCEC05F014D00CC0F6FF0DC0F7FF98
:100A5000F86A070EF76403D00800F55005D0F6CF0A
:100A6000E9FFF7CFEAFFEF50E8EC05F00C4A0D2A5A
:100A70000CC0F6FF0DC0F7FFF86A070EF76403D04D
:100A80000800F55005D0F6CFE9FFF7CFEAFFEF50A9
:100A90000009D8B41200D8D7000E0D6E000E0C6EEF
:100AA0000A500910D8B41ED00B6E010E0E6E0B50FA
:100AB00004D0D89009360A360E2A0AAEFAD7D89052
:100AC0000C360D360950075C0A500858D8A005D0DE
:100AD0000950075E0A50085A0C80D8900A32093231
:100AE0000E2EEDD70CC007F00DC008F0120012500A
:100AF0001110D8B41AD0136E010E146E135004D016
:100B0000D89011361236142A12AEFAD711500F5C53
:100B100012501058D8A004D011500F5E1250105A25
:100B2000D89012321132142EF1D70FC00FF010C02E
:100B300010F0120001500302F3CF05F0F4CF06F0DD
:100B400001500402F3CFF4FFF36AF3500526F4508A
:100B5000062202500302F3CFF4FFF36AF350052696
:100B6000F450062205C001F006C002F01200000E8B
:100B7000046E000E036E0FD0000E066E000E056EA2
:100B8000640E055C000E0658D8B003D0054A062A4C
:100B9000F7D7034A042A0150035C02500458D8B026
:100BA0001200EAD70F0EC16E000E936E92909292D1
:100BB000380EFCEC05F0060EFCEC05F00C0EFCEC1F
:100BC00005F0010EFCEC05F0800EFCEC05F01200C7
:100BD000E8CF07F0898007C08AFF8982000E026E85
:100BE0000A0E016EB7EC05F08992000E026E0A0E35
:100BF000016EB7EC05F01200E8CF07F0899007C04E
:100C00008AFF8982000E026E0A0E016EB7EC05F0B3
:100C10008992000E026E0A0E016EB7EC05F012000A
:100C200000EE29F0100EEE6AE806FDE1000EF86E07
:100C30000001C3EF04F01D0EC26EC282C2B2FED725
:100C4000C3CF01F0C4CF02F012009684070EC16E2C
:060C5000AE0EC06E1200A2
:020000040020DA
:08000000FFFFFFFFFFFFFFFF00
:020000040030CA
:0E00000000051F1FFF8385FF0FC00FE00F409C
:00000001FF
